:020000040800F2
:1000000098F00420F101000831D20108C1A50108CF
:100010009DAE01082BBB0008B57B02080000000064
:10002000000000000000000000000000CF290208CE
:10003000191D0108000000005F0200082DE80108FA
:100040000B0200080B0200080B0200080B0200085C
:100050000B0200080B0200080B0200080B0200084C
:100060000B0200080B0200080B0200080B0200083C
:100070000B0200080B0200080B0200080B0200082C
:100080000B0200080B0200080B0200087FBB0008EF
:100090005FBB00080B0200080B0200080B020008FF
:1000A0000B0200080B0200080B0200080B020008FC
:1000B0000B0200080B0200080B0200080B020008EC
:1000C0000B0200080B0200080B0200080B020008DC
:1000D0000B02000891680208B5680208D968020896
:1000E0000B0200080B0200080B0200080B020008BC
:1000F0000B0200080B0200080B0200080B020008AC
:100100000B020008552202080B0200080B0200082F
:10011000315F0208A55F02080B0200080B0200080D
:100120000B0200080B0200080B020008E51A010888
:100130000B0200080B0200080B020008BFBB0008FE
:100140009FBB00080B0200080B020008ADEE01087F
:100150000B0200080B0200080B020008FD680208F1
:100160000B0200080B020008FFBB0008DFBB000801
:100170000B0200080B020008000000000B02000840
:100180000B0200080B0200089D60020815610208BE
:100190000B0200080B020008000000000B02000820
:1001A0000B0200080B020008000000000000000025
:1001B0000B02000800000000000000000B02000815
:1001C0000B0200080B0200080B0200080B020008DB
:1001D0000B0200080B020008DFF810D000F016FC3C
:1001E000004800473DD90208AFF3008098F0042092
:1001F0000648804706480047FEE7FEE7FEE7FEE7C1
:10020000FEE7FEE7FEE7FEE7FEE7FEE7DD3F02086A
:10021000D9010008EFF3108072B6704780F31088A0
:10022000704726484FF0FF010170002080F30988D5
:100230002348016881F3088822480121017022487F
:100240004FF08051016062B6FEE71F484FF08051C9
:10025000016070471C484FF080510160704772B6D2
:100260002EF01F0E4EF0090EEFF3098050B11EF074
:10027000100F08BF20ED108A203880E8F00F1349D6
:100280000968086000B5124880475DF804EB114822
:1002900011490A7802700D4810490A680260106816
:1002A00090E8F00F20301EF0100F08BFB0EC108A5D
:1002B00080F309884EF0040E62B6704722ED00E02C
:1002C000180000202300002004ED00E0440000207E
:1002D0003DE4010820000020210000204C00002007
:1002E0002DE9F05F0546002092469B46884606466B
:1002F000814640241BE0284641464746224600F0FE
:10030000B5FA53465A46C01A914110D311461846C1
:10031000224600F016F82D1A67EB01084F462246D8
:100320000120002100F00DF817EB00094E41201EBE
:10033000A4F10104DFDC484631462A464346BDE8C5
:10034000F09F202A04DB203A00FA02F100207047D7
:100350009140C2F1200320FA03F319439040704703
:1003600040EA01039B0703D009E008C9121F08C037
:10037000042AFAD203E011F8013B00F8013B521EB7
:10038000F9D27047D2B201E000F8012B491EFBD22E
:1003900070470022F6E710B513460A460446194690
:1003A000FFF7F0FF204610BD30B505462A460B4644
:1003B00012F8010B13F8014B08B1A042F8D01CB1A0
:1003C000002802D06D1CF1E7284630BD421C10F811
:1003D000011B0029FBD1801A704710B5002200E0F4
:1003E000521C835C8C5CA34201D1002BF8D1D8B2A3
:1003F000E1B2401A10BD30B504460020034600E0CB
:100400005B1C934203D2E05CCD5C401BF8D030BD56
:1004100030B505460020034600E05B1C934205D240
:10042000EC5CC85C201A01D1002CF6D130BD000074
:1004300070B50F4D00B92868002412E00A4602E0AA
:100440009E4203D0521C1378002BF9D1DAB222431A
:1004500005D02BB124B1002100F8011B04E00446B3
:10046000401C0678002EE9D12860204670BD0000AF
:10047000D01F002070B506462BF0D4FD0468054659
:100480000A220021304600F013FA2C6070BD2DE9DD
:10049000FE4F804681EA0300C00F0C46009021F019
:1004A000004123F00045B8EB0200A94105D24046C7
:1004B000214690461C460B46024623F0004010435E
:1004C00047D0270DC7F30A00C3F30A510290401A20
:1004D000019040286BDAC3F3130040F4801B0098AE
:1004E000924620B10023D2EB030A63EB0B0B019879
:1004F0005946C0F140025046FFF723FF06460D461D
:1005000050465946019A00F0C1F910EB08006141CC
:10051000002487EA115284EAE7731A4340D0009A14
:1005200062B3019A012A4FEA075215DC001B61EB06
:1005300002014FF0004202EA0752CDE90042001CDE
:1005400041F5801132462B4600F0F9F903B0BDE8C1
:10055000F08F40462146F9E7001B61EB0201001CC9
:1005600041F5801300185B412018A2F5001747EBF6
:10057000030140EAD570B6196D4111E06D084FEAEC
:10058000360645EAC0754FEA0752001B61EB0201CF
:10059000001C41F5801149084FEA30000019514113
:1005A00032462B4603B0BDE8F04F00F0B9B90098D1
:1005B000012240000023D0EB020263EBE0730098BD
:1005C00021464FEAE074B8EB000061EB0401E9E773
:1005D00083F000435BE781F0004158E72DE9FE4FCF
:1005E00081EA030404F0004421F0004100944FF03C
:1005F000000B23F0004350EA01045ED052EA0304EA
:100600005BD0C3F30A54C1F30A552C44A4F2F3346B
:100610000194A0FB0254C1F3130141F48011C3F310
:10062000130343F4801301FB024400FB034E840ACE
:10063000970A44EA815447EA8357A4FB0768029566
:100640008D0A05FB07854FEA932C04FB0C54270504
:10065000029D4FEA065847EA1637B5EB08056EEBE0
:10066000070C870E920E47EA811742EA8312A7FB16
:100670000201B6EB0B0164EB00042B0D43EA0C33D3
:100680005E1844EB1C50DA465146E7FB0201C5F305
:1006900013044FEA0B3343EA14534FEA0432019C2C
:1006A00043EA0603A4F10C040294009CCDE900B4D3
:1006B00000F045F903B0BDE8F08F00200146F9E7EE
:1006C0002DE9F04D81EA030404F0004B21F00045D0
:1006D00014464FF0000A23F0004150EA050220D0F2
:1006E00054EA01021DD0C5F30A570246C5F31303AD
:1006F000C1F31300C1F30A5640F4801543F480138C
:10070000A7EB0608101BD64608F2FD3873EB050070
:1007100002D308F1010801E092185B41B8F1000F23
:1007200003DA00200146BDE8F08D00204FF480116F
:10073000064684460EE0171B73EB050705D3121B14
:1007400063EB050306434CEA010C49084FEA30000D
:1007500092185B4150EA0107EDD152EA030012D032
:1007600082EA040083EA0501084305D0101BAB416F
:1007700006D20122002306E000224FF0004302E0EF
:100780006FF0010253101AEB06004CEB085110EB0E
:100790000A0041EB0B01BDE8F04D00F0C1B80EB509
:1007A00040F2334102910021CDE900110A460B4687
:1007B00000F0C5F803B000BDC1F30A5210B5C1F393
:1007C000130140F2FF3341F480119A4201DA002014
:1007D00010BD40F233439A42A2F2334203DC52424C
:1007E00000F044F810BD904010BD00F0004230F021
:1007F00000400AD0C10D01F56071C0F3160042EA55
:100800000151C2084007114370470020014670475C
:1008100030B5041E71F1000404DB4FF00044404287
:1008200064EB0101141E73F1000405DB1C464FF05C
:100830000043524263EB0403994208BF904230BD2B
:1008400030B50B46014600202022012409E021FAA0
:1008500002F59D4205D303FA02F5491B04FA02F59D
:100860002844151EA2F10102F1DC30BD202A04DB70
:10087000203A21FA02F00021704721FA02F3D04019
:10088000C2F120029140084319467047202A06DB36
:10089000CB17203A41FA02F043EAE07306E041FA4E
:1008A00002F3D040C2F1200291400843194670473C
:1008B0002DE9F04791460F4680460446002614F87D
:1008C000015B2DB100F0B4F80068405DC007F6D1BF
:1008D0002B2D02D02D2D18D0641E4A4639462046B5
:1008E00000F0AAF827B13968A14201D1C7F8008009
:1008F00071054FF002040BD54042002803DD2BF0B8
:1009000091FB0460A007BDE8F08746F48066E4E749
:100910000028F8DA2BF086FB04606FF00040F2E765
:1009200010B5141E73F1000408DA401C41F10001F7
:1009300092185B411A4301D120F0010010BD2DE94E
:10094000F04D92469B4611B1B1FA81F202E0B0FA45
:1009500080F220329046FFF7F4FC04460F4640EA4E
:100960000A0041EA0B0153465A46084313D0114688
:1009700053EA010019D0C8F140025046FFF776FF54
:1009800005460E46504659464246FFF7DAFC0843F4
:1009900005D0012004E020463946BDE8F08D002056
:1009A000054346EAE0762C4337430A986305E40A98
:1009B000A0EB08000022FD0A44EA47540A3002D5A1
:1009C00000200146E9E7010510196941DDE9084504
:1009D00000196941BDE8F04DA2E7C1F30A52C1F325
:1009E000130140F2FF3341F480119A4202DA0020F1
:1009F0000146704740F233439A42A2F2334202DC8E
:100A00005242FFF733BFFFF79CBC0000064C074D76
:100A100006E0E06840F0010394E8070098471034CE
:100A2000AC42F6D3FFF7DCFB640103088401030842
:100A3000004870477CF502082DE9F05F8246007897
:100A4000002715468B460AF10104B946302801D02B
:100A50009DB113E014F8010B0127782803D0582822
:100A600001D045B10AE00DB1102D07D100271025A6
:100A700014F8010B02E0082500E00A250026B04624
:100A80000EE005FB080005FB06F1012701EB10460F
:100A90001FFA80F8B6F5803F00D3B94614F8010B71
:100AA000294600F018F80028EBDABBF1000F05D05A
:100AB0000FB1641E00E05446CBF80040B9F1000FBE
:100AC00006D02BF0AFFA02210160C81EBDE8F09FEE
:100AD00048EA0640FAE73A2800D2303820F02002EF
:100AE000412A01D3A2F13700884201D34FF0FF30F1
:100AF000704770B58C1810F8015B15F0070301D131
:100B000010F8013B2A1106D110F8012B03E010F870
:100B1000016B01F8016B5B1EF9D12B0705D4002393
:100B2000521E0DD401F8013BFAE710F8013BCB1A35
:100B3000921C03E013F8015B01F8015B521EF9D52A
:100B4000A142D8D3002070BD002904D0816841F0B3
:100B5000010181607047816821F001018160704767
:100B600010B5074C226807490A40D0E90013194321
:100B7000D0E90230034319431143216010BD000046
:100B800004230140E030FCFF002904D0816841F4D7
:100B9000807181607047816821F480718160704745
:100BA000002904D0816841F4007181607047816838
:100BB00021F400718160704710B501210C022046BC
:100BC0001FF0B6FC2046BDE8104000211FF0B0BC6D
:100BD00030B542680F4B1A400C790B6842EA042288
:100BE0001343436083680C4A1340D1E90342224314
:100BF0004D798C6844EA450422431A438260C26AF4
:100C000022F47002097D491EC9B242EA0151C16253
:100C100030BD0000FFFEFFFCFDF7FFC070B50726EA
:100C200009290AD9C568A1F10A0404EB4404A640C5
:100C3000B543A3401D43C56007E0056901EB4104CE
:100C4000A640B543A3401D4305611F23072A09D2CF
:100C5000446B521E02EB820293409C4391400C4332
:100C6000446370BD0D2A09D2046BD21F02EB8202CD
:100C700093409C4391400C43046370BDC46A0D3A99
:100C800002EB820293409C4391400C43C46270BDCE
:100C9000816841F0804181607047002101600171ED
:100CA00041718160C16001610121017570470000DF
:100CB00030B40B4A0021437812F83140A34208D1E6
:100CC00002EBC104646824B102EBC101496830BC85
:100CD0000847491CC9B20E29EED330BC002070472A
:100CE0004CF1020830B40B4A0021437812F831402D
:100CF000A34208D102EBC104646824B102EBC10134
:100D0000496830BC0847491CC9B20E29EED330BC33
:100D100000207047BCF1020800B5002805D0002073
:100D200014F012FD012802D008E0002000BD0449A3
:100D300001220020CA72002122F038FD012000BDEE
:100D4000E4CA022000B5002805D0012014F0FCFC04
:100D5000012802D008E0002000BD0449012081F8EC
:100D60008000002122F022FD012000BDE4CA022003
:100D70002DE9F04791461F46022835D21B4A02EB67
:100D800080052980B9FBF7F101F0FF08184A00EB54
:100D90004001B72302F8213002EB81062D23737046
:100DA000307275600124DFF84CA00CE008FB04F001
:100DB00068803146DAF800001DF034F832201DF06A
:100DC0005DFB641CE4B2BC42F0D3A5F8029031464E
:100DD000DAF800001DF026F864201DF04FFBBDE896
:100DE000F04705A02BF0BCB8BDE8F0871812002032
:100DF00084C60220A01E0020506F776572204D6FC0
:100E000064656C205365742041646A7573740D0ABF
:100E10000000000010B5002808D000240246072377
:100E20000621204622F0EAFD012010BD002010BD61
:100E300010B5002808D001240246072306212046C9
:100E400022F0DCFD012010BD002010BD2DE9F04195
:100E50000246002901D0642A02D90020BDE8F081B1
:100E60000B8840F2EA56A3F5A060E93801D0B342FE
:100E700014D1486890B10D7A521EC2EB021101EBF9
:100E800081041149114F01EB84014FF4967207EB75
:100E90008404012D0DD0022D13D101E00020DDE7E7
:100EA000B34202D126F0A6FF0BE0214626F0A2FFB6
:100EB00007E0B34202D126F023FF02E0214626F0EC
:100EC0001FFF0120CAE7000010980200E022020084
:100ED00010B5002807D0002212480023807910F0B6
:100EE000300F02D01BE0002010BD104614F0A6FC0D
:100EF000A8B90121104622F0E1FD0B49B720087086
:100F00002E2048700B7201204880084800681CF0B1
:100F100089FF32201DF0B2FA05A02BF021F8012044
:100F200010BD000038C602200CC90220A01E0020FF
:100F3000506F7765722044697361626C65204D65FE
:100F400073736167652053656E640D0A00000000CD
:100F500010B5002806D001231348407B10F0300F55
:100F600002D01EE0002010BD184614F067FCC0B986
:100F70000121184622F0A2FD0C49B72008730A4649
:100F80002E2002F10C0150730B720120488008489A
:100F900000681CF047FF32201DF070FA05A02AF00F
:100FA000DFFF012010BD000038C6022024C9022046
:100FB000A01E0020506F7765722044697361626CD7
:100FC00065204D6573736167652053656E640D0A16
:100FD000000000002DE9F04F89B0044601A801F09F
:100FE00017FE01A905A82EC92EC02CB10025284640
:100FF00014F032FC20B180E1002009B0BDE8F08F90
:10100000BFA02AF0ADFF284614F05AFD4FF00A08A1
:10101000B0FBF8F4284614F0B7FD012834D00027BF
:10102000BD4EB4F57A7F7DD9B6F80B00A0424FD8FB
:101030007321484304EBC40101EB0411B146B0EB4A
:10104000810F6FD24FF47A701DF018FA284614F011
:1010500037FDB0FBF8F4B9F80B20732004EBC401A2
:10106000504301EB0411B0EB810F1AD22146ABA023
:101070002AF076FF1E21384622F0D6FD022138469E
:1010800022F028FD0020B8E70F21284622F0CCFDF1
:10109000AAA02AF065FF0221284622F01BFD0020AD
:1010A000ABE7732002EBC201604301EB0211B0EB2E
:1010B000810F52D2214699A02AF052FF02213846D0
:1010C00022F008FD1E21384622F0AEFD002094E7F4
:1010D000732100EBC002614302EB0010B1EB800F03
:1010E0003BD24FF47A701DF0C9F9284614F0E8FCA1
:1010F000B0FBF8F4B6F80B20732002EBC20160439A
:1011000001EB0211B0EB810F0FD2214683A02AF030
:1011100027FF0221384622F0DDFC1E21384622F04E
:1011200083FD00E019E0002067E7732102FB01F076
:1011300004EBC40101EB0411B0EB810F0DD2214689
:1011400076A02AF00DFF1E21384622F06DFD022107
:10115000384622F0BFFC00204FE7BDF81D00A0423A
:101160000DD2214679A02AF0FBFE0221284622F06A
:10117000B1FC1E21284622F057FD00203DE776A055
:101180002AF0EEFE4FF4FA701DF078F97948332119
:101190004180B6F80B10002432390180764F4FF0B1
:1011A000B70A87F800A02D2179703C727860DFF8CB
:1011B000CCB13946DBF800001CF034FE0A201DF0EB
:1011C0005DF947F230521021204609F00CFB05EB87
:1011D00045006B4900EBC50000EB010805EB8500FD
:1011E00000EBC50000EB0609B8F80010B9F80B00D9
:1011F000A0F1C802914203DAFA201DF03FF927E07E
:10120000C83081425AD905EB450607F826A007EBFE
:1012100086042E2060702572012060802146DBF854
:1012200000001CF0FFFD4FF4FA601DF027F907F8ED
:1012300026A02D20607025724E4800EB850060606E
:101240002146DBF800001CF0EDFD0A201DF016F928
:1012500047F230521021284609F0BAFA1728C3D1B4
:1012600005EB450007F820A007EB80012E224A700D
:10127000002048800D72DBF800001CF0D3FD4FF415
:101280007A701DF0FBF80221752205FB02F03D4A41
:10129000104481714170322128460DF0F7F9B8F8F9
:1012A000001039A02AF05CFE1721284622F0BCFC71
:1012B0000221284622F00EFC00209EE6284601F07E
:1012C00027FA012805D1354800EB45000088A9F828
:1012D0000600284609F01CFD0121284622F098FC52
:1012E000012307220421284622F0E4FA012128469E
:1012F00022F0F0FB2AA02AF033FE01207DE6000058
:10130000436861726765205265616479204368654E
:10131000636B0D0A0000000002C60220766F6C3A73
:1013200025642C4261747465727950726573656EC0
:1013300074566F6C3A25640D0A000000E794B5E618
:10134000B1A0E58F8DE68EA50D0A0000766F6C3A90
:1013500025640D0A00000000436861726765205231
:101360006561647920436865636B20446F6E650D29
:101370000A000000701200207CC80220A01E00207D
:101380007C630420E4CA0220313131312020766FA1
:101390006C203D2025640D0A00000000E2110020B1
:1013A0004368617267657220526561647920446F99
:1013B0006E650D0A000000002DE9F04F89B004466B
:1013C00001A801F025FC01A905A82EC92EC02CB149
:1013D0000124204614F040FA20B17CE1002009B03D
:1013E000BDE8F08FBDA02AF0BBFD204614F068FBDD
:1013F0000A26B0FBF6F5204614F0C6FB012831D0D2
:10140000B5F57A7F7DD9BB48008BA8424ED87321B1
:10141000484305EBC50101EB0511B0EB810F70D21C
:101420004FF47A701DF02AF8204614F049FBB0FB07
:10143000F6F5B04805EBC50101EB0511028B7320F1
:101440005043B0EB810F1AD22946ABA02AF088FD99
:101450001E21204622F0E8FB0221204622F03AFB22
:101460000020BCE70F21204622F0DEFBAAA02AF0D4
:1014700077FD0221204622F02DFB0020AFE77320EC
:1014800002EBC201684301EB0211B0EB810F50D2B5
:10149000294699A02AF064FD0221204622F01AFB79
:1014A0001E21204622F0C0FB002098E7732100EBAC
:1014B000C002694302EB0010B1EB800F39D24FF448
:1014C0007A701CF0DBFF204614F0FAFAB0FBF6F558
:1014D0008849732068430A8B02EBC20101EB0211B9
:1014E000B0EB810F0ED2294683A02AF039FD0221EC
:1014F000204622F0EFFA1E21204622F095FB002024
:101500006DE716E0732005EBC501504301EB0511B3
:10151000B0EB810F0DD2294677A02AF021FD1E21C4
:10152000204622F081FB0221204622F0D3FA00203F
:1015300055E7BDF81D00A8420DD229467AA02AF031
:101540000FFD0221204622F0C5FA1E21204622F07E
:101550006BFB002043E777A02AF002FD4FF4FA70FE
:101560001CF08CFF7A493322081DCA806149098B1F
:1015700032390180774F4FF0B70A87F80CA03A460E
:101580002D2302F10C0153730C724860DFF8C8B1CF
:10159000DBF800001CF046FC0A201CF06FFF47F24D
:1015A00030521021204609F01EF904EB44006B4A2A
:1015B00000EBC40000EB02084E4904EB840000EB92
:1015C000C40000EB0109B8F80010B9F80B00A0F155
:1015D000C802914203DAFA201CF050FF27E0C8301D
:1015E000814259D904EB440607F826A007EB86058B
:1015F0002E2068702C72012068802946DBF80000DC
:101600001CF010FC4FF4FA601CF038FF07F826A01D
:101610002D2068702C724E4800EB840068602946CB
:10162000DBF800001CF0FEFB0A201CF027FF47F24D
:1016300030521021204609F0CBF81728C3D104EB13
:10164000440007F820A007EB80012E224A700020FA
:1016500048800C72DBF800001CF0E4FB4FF47A7059
:101660001CF00CFF022175203D4A6043104481713B
:101670004170322120460DF009F8B8F8001039A069
:101680002AF06EFC1721204622F0CEFA02212046D5
:1016900022F020FA0020A2E6204601F039F80128C5
:1016A00005D1354800EB44000088A9F80600204623
:1016B00009F02EFB0121204622F0AAFA012307227D
:1016C0000421204622F0F6F80121204622F002FAF9
:1016D0002AA02AF045FC012081E6000043686172DF
:1016E000676520526561647920436865636B0D0A04
:1016F0000000000002C60220766F6C3A25642C427E
:1017000061747465727950726573656E74566F6C2E
:101710003A25640D0A000000E794B5E6B1A0E58F14
:101720008DE68EA50D0A0000766F6C3A25640D0AD1
:10173000000000004368617267652052656164794A
:1017400020436865636B20446F6E650D0A000000DE
:101750007012002094C80220A01E00207C63042088
:10176000E4CA0220313131312020766F6C203D20D7
:1017700025640D0A00000000E21100204368617238
:1017800067657220526561647920446F6E650D0A49
:101790000000000010B5002902D0B0F57A7F01D911
:1017A000002010BD0A88A2F58063EC3B0DD14B6888
:1017B0005BB1401E59225043097A00F574309030D5
:1017C00001290AD002290DD101E0002010BD0146F7
:1017D0005922184626F00EFB04E00146592218460D
:1017E00026F08EFA012010BD2DE9F04F8DB00028B3
:1017F0003CD000F073FF05900020069001A801F096
:1018000007FA01A807AC0FC80FC4069814F00CF82B
:10181000DFF898920027A9F1180A4FF0B70809F5E8
:101820000876022826D0A24A5088C0F57A6081B294
:10183000ADF82E109F484088C0F57A6080B2814292
:1018400001D9ADF82E001188ADF82C109A4D2980E1
:10185000BDF82E006880BDF82720904200D96A802C
:10186000964890F83A20012A71D09BE000200DB0F4
:10187000BDE8F08F9049BDF82520083908889042CE
:1018800022D90220707270702921384622F0CCF9DA
:1018900089F8008002228AA138461BF0A5FC24208A
:1018A00089F8010089F80870494605981CF0BAFAD1
:1018B0000A201CF0E3FD0021384621F0D7FF81A06B
:1018C0002AF04EFB0020D2E74A88BDF8270082426A
:1018D00000D948808AF800802D208AF801008AF813
:1018E0000870CAF804107D48514600681CF09AFA46
:1018F0000A201CF0C3FD384613F0BCFF012823D09A
:10190000069809F025FC0121069822F081F90123AF
:1019100007220421069821F0CDFF30461C21FEF756
:1019200038FD0121384622F0E1F889F800802520B1
:1019300089F8010089F80870494605981CF072FA88
:101940000A201CF09BFD72E0012090E7FFE790F871
:101950003D0038B1052805D00C2803D00E2801D051
:1019600009281FD15E484FF4FA635E4A0088984206
:101970000CD2108842F210725043B0FBF3F26C8824
:10198000A2420FD2B0FBF3F068800BE0128842F263
:1019900010735A43B2FBF0F36C88A34202D2B2FB3D
:1019A000F0F06880BDF82500814201D9288010E060
:1019B000BDF82940A1420CD2AB464BA02AF0D0FA88
:1019C000BBF80000F0B3ABF8004021464AA02AF073
:1019D000C7FA069813F04EFF012850D06A8829886C
:1019E00003230698FFF7C4F9012307220421069870
:1019F00021F060FF30461C21FEF7CBFC0121384668
:101A000022F074F889F80080252089F8010089F80F
:101A10000870494605981CF005FA0421384621F063
:101A2000D1FE0A201CF02AFD37A02AF099FA069868
:101A300009F08EFB0121069822F0EAF8069809F0D9
:101A4000B5FB00E00EE01CF067FD01463046C6F82D
:101A500022102A3009F0C2FB0021384621F012FF83
:101A6000012004E7069800F053FE012804D04FF44B
:101A7000FA60ABF80000ACE7ABF80040A9E78AF8E1
:101A800000802D208AF801008AF80870CAF80450F6
:101A90001248514600681CF0C5F914201CF0EEFCF9
:101AA000384609F055FB0120E1E60000C4C80220D9
:101AB0001CC6022002C60220701200209A98022042
:101AC0004634000044656D616E6420566F6C20548E
:101AD0006F6F204C617267650D0A0000A01E002028
:101AE0007C6304208C0600204141414D494E4D4904
:101AF0004E2C25780D0A00004141414D494E4D497B
:101B00004E322C25780D0A004368617267652042C9
:101B10006567696E0D0A00002DE9F04F8BB0002853
:101B200044D000F0DBFD04900126684601F070F817
:101B30009DE80F0005AC0FC4304613F075FEDFF8CA
:101B4000D0924FF0B70AA9F10C0509F10C0405F287
:101B5000712702282ED0AF48B0F80700C0F57A6090
:101B600081B2ADF82A10AC48B0F80F00C0F57A6029
:101B700080B2814201D9ADF82A00A648B0F805101C
:101B8000ADF82810A54800F104088180BDF82A00AE
:101B9000A8F80200BDF81F20904201D99F48C280DA
:101BA0009F4890F83A20012A77D0AAE000200BB095
:101BB000BDE8F08F9948BDF81D200838011D8088C8
:101BC000904223D99749022081F87E00787029211C
:101BD000304622F029F889F80CA08D49242048735A
:101BE000032291A130461BF0FFFA26722146049889
:101BF0001CF018F90A201CF041FC0021304621F0AD
:101C000035FE8AA02AF0ACF90020D0E783480838D6
:101C1000C288BDF81F00824202D9804A083AD080AB
:101C20007B48183880F80CA0794A2D20183A507358
:101C30002E7269608348294600681CF0F3F80A2078
:101C40001CF01CFC304613F015FE012823D0304652
:101C500009F07EFA0121304621F0DAFF0123072244
:101C60000421304621F026FE38461C21FEF791FB68
:101C70000121304621F03AFF89F80CA06449252063
:101C800048732672214604981CF0CCF80A201CF0F8
:101C9000F5FB7EE001E0012089E790F83D0038B1D6
:101CA000052805D00C2803D00E2801D0092828D1FA
:101CB00065484FF4FA62594BB0F80B00DFF88CC15D
:101CC00090420FD2BCF8000042F2107C00FB0CF0F6
:101CD000B0FBF2FCB3F806B0DC4512D2B0FBF2F078
:101CE000D8800EE0BCF8002042F2107C02FB0CF21F
:101CF000B2FBF0FCB3F806B0DC4502D2B2FBF0F068
:101D0000D880BDF81D00814202D94449888011E085
:101D1000BDF821B059450DD24DA02AF021F9B8F8EF
:101D2000000000284ED03D48A0F804B059464CA011
:101D30002AF016F9304613F09DFD012850D037489F
:101D4000B8F800100323C2883046FFF711F80123CA
:101D500007220421304621F0ADFD38461C21FEF754
:101D600018FB0121304621F0C1FE89F80CA028495A
:101D7000252048732672214604981CF053F804214C
:101D8000304621F01FFD0A201CF078FB38A02AF015
:101D9000E7F8304609F0DCF90121304621F038FF40
:101DA000304609F003FA1CF0B7FB1E49C1F8970052
:101DB00007F12A0009F012FA0021304621F062FDF5
:101DC0000120F4E6304600F0A3FC012804D01349BA
:101DD0004FF4FA608880ADE71048A0F804B0A9E796
:101DE0000B48183880F80CA009492D201839487381
:101DF0002E72C5F804801348294600681CF012F8BA
:101E000014201CF03BFB304609F0A2F90120CEE67D
:101E1000F4C802201CC6022002C602207012002054
:101E20009A980220E4CA02204633300044656D616E
:101E30006E6420566F6C20546F6F204C6172676522
:101E40000D0A0000A01E00207C6304208E060020E6
:101E50004141414D494E4D494E2C25780D0A000017
:101E60004141414D494E4D494E322C25780D0A00D5
:101E700043686172676520426567696E0D0A0000FC
:101E80002DE9F04780460F461546B8F1020F02D300
:101E90000020BDE8F08708EB480000EBC8012748A8
:101EA0000E1808366FB165B10024DFF89490325DEA
:101EB00019F80410914200D192B309F804207CBBB8
:101EC00001E00020E5E7307810F0BE0F2FD0307829
:101ED000C00612D5787820F030001030787028785D
:101EE00040F00800287017A02AF03AF801231A469B
:101EF0000421404621F0DEFC05E0002301220421FC
:101F0000404621F0D7FC307880060AD5287840F08A
:101F100008002870012307220321404621F0CAFC53
:101F200005E0002307220321404621F0C3FC641C86
:101F3000E4B2022CBBD30120ABE700007C63042099
:101F40000C12002031313131370D0A0003480021D5
:101F5000C16041608160018201207047C896022003
:101F60001CB50B4B0B4901EBC000016800914068A8
:101F700001909DF8000020F00F00801D8DF80000FA
:101F800008226946184620F08BFE01201CBD000087
:101F9000A09F051878E9042002460846012A09D0C6
:101FA000022A05D0032A07D0052A07D103F03ABE3A
:101FB00005F042BB05F0D0BB00F0ACB9704710B5DE
:101FC0000024204608F090FE204608F0B1FE20468E
:101FD00008F09EFE641CE4B2022CF2D310BD000097
:101FE00010B532210B481BF063FE0B4CA06070B1A2
:101FF00008483221C8301BF05BFEE06040B1002091
:102000000FF0B8FB01200FF0B5FB012010BDFEE77B
:10201000FEE7000054C9022008120020F0B40F4A65
:10202000002806D0418821B1456815B1012400215E
:1020300010E00020F0BC704743784BB112F83160DB
:10204000B34205D153681BB128465168F0BC08471C
:10205000491CC9B2A142EFD30020EBE73CEF0208D4
:10206000F0B40F4A002806D0418821B1456815B167
:102070000124002110E00020F0BC704743784BB1F0
:1020800012F83160B34205D153681BB1284651683C
:10209000F0BC0847491CC9B2A142EFD30020EBE7CE
:1020A00044EF0208F8B504460D4613F021FC002168
:1020B00000918CB1062D0FD370B1A378E1786278CE
:1020C000267842EA0622A2F5B446A53E14D1DA1CCF
:1020D000AA4203D00020F8BD0020F8BD83290BD10F
:1020E0006179227941EA0225A17949060A0EE11DAA
:1020F00025B128460FF0F0FD0120F8BDE1188A78DF
:10210000497842EA012302F07F010091007960F3EF
:10211000DF119942F0D168460FF0D0FDECE70000E6
:1021200010B500280BD01C210648FEF732F900201C
:1021300008F0FEFD04A029F013FF012010BD0020CF
:1021400010BD0000E4CA0220456C656374726F6EB6
:102150006963204C6F636B204C6F636B65640D0A81
:102160000000000010B500280BD01C210648FEF727
:1021700010F9012008F0DCFD04A029F0F1FE012097
:1021800010BD002010BD000059CB0220456C6563D6
:1021900074726F6E6963204C6F636B204C6F636B5E
:1021A00065640D0A0000000010B500280AD0002068
:1021B00008F09AFD002008F0BBFD03A029F0D0FE36
:1021C000012010BD002010BD456C656374726F6EF8
:1021D0006963204C6F636B20556E6C6F636B656435
:1021E0000D0A000010B500280AD0012008F07CFD7F
:1021F000012008F09DFD03A029F0B2FE012010BDD2
:10220000002010BD456C656374726F6E6963204C6D
:102210006F636B20556E6C6F636B65640D0A000015
:102220002DE9F0410446002C2ED020884FF416757D
:10223000A0F5806240F6A666063A0FD0A0F580624F
:10224000CE3A34D0A0F57F42FF3A57D020F0FEFBC3
:102250000146002952DA0020BDE8F081012080F318
:102260001088207A284F022810D02A46274938465D
:102270002BF040FE628825496068FEF771F8002067
:1022800080F310880120E7E70020E5E718F0BCF9AB
:1022900062881E486168FEF763F82A461B49384683
:1022A0002CF0A7FB3146042018F092F9E7E7012053
:1022B00080F31088207A164F02280ED02A46134940
:1022C00038462BF017FE628810496068FEF748F820
:1022D000002080F310880120BEE718F095F962888D
:1022E0000A486168FEF73CF82A46084938462CF04F
:1022F00080FB3146042018F06BF9E9E788B22146EB
:10230000BDE8F0411EF0B2B800000E0874B0022023
:1023100000000C080120704770B5134E1CF0FCF84B
:102320000446002505EB450036F82010B1B106EB58
:1023300080004268A24208D8A21A8A420ED381685D
:1023400061B144600020884708E0D24322448A42B9
:1023500004D3816811B14460002088476D1CEDB240
:10236000022DDFD3012070BD381F002070B5054657
:10237000022D1AD2C9B1681CC0B221F0D9FC0021CB
:102380000B480126006800EB850406FA01F2236978
:10239000134201D093432361491CC9B20829F4D3E5
:1023A0002846FFF7DDFD012070BD002070BD000054
:1023B000FC1E002001484069704700007812002090
:1023C00010B5022801D3002010BD6B2148430449F9
:1023D0001022014453310348FDF7C2FF014810BDEC
:1023E000145D0320C8610320022801D30020704738
:1023F0006B21484302490844D0F8090070470000A7
:10240000145D0320022801D3002070470149085CB5
:10241000704700007C16002010B5022801D3002070
:1024200010BD064900EB800001EBC00118311022FD
:102430000348FDF795FF024810BD0000C97C03204A
:10244000986A0320022801D30020704700207047BB
:10245000022801D3002070470149085C7047000042
:102460003B170020004870475E9B02200A2801D9D4
:102470000020704701490844C07A70475C3004204E
:10248000002901D0022801D300207047034A02EB43
:10249000400000880880012070470000E211002001
:1024A00000487047CF9D0220164991F83D10002941
:1024B0001FD005291DD00C291BD00E2919D00929A0
:1024C00017D0082917D0022917D00B2917D00D29AA
:1024D00015D00F2913D0012911D00A290FD00629B0
:1024E0000DD007290BD0032909D0042907D000F00B
:1024F0004BB900F049B9FFF763BFFFF78DBF00F09C
:10250000E7BB00009A980220022801D30020704700
:1025100000EB4001C1EBC010024901EB8000401C00
:1025200070470000CC7502200EB540F2E650ADF8C1
:10253000000040F6B830ADF80200084801900120D4
:102540008DF808006846FFF76BFE08B103480EBD22
:1025500003A029F005FD00200EBD0000B479022083
:10256000526561642063617264776C2020657272C9
:102570000000000010B588B00446002C17D0684653
:1025800000F046FBDDE90201CDE90601BDF81900C6
:102590002080BDF81D006080BDF81B00C0F57A608A
:1025A000A0804FF47A60E080012008B010BD0020C8
:1025B000FBE770B505460C46284613F069F974B17F
:1025C000B0F83412218080694FF47A71B0FBF1F0D9
:1025D0006080284600F09CF8012802D003E000202B
:1025E00070BD08206060012070BD000001480078C7
:1025F000704700008819002070B505460C46284633
:1026000013F046F90CB1022D01D3002070BD05EB8B
:10261000450101EBC5020F4911440A88228049880F
:10262000C1F57A616180B0F83402A080284600F0DC
:102630006FF8012809D1284613F000F938B10020BD
:10264000A071A07940F0FC00A071012070BD0120B4
:10265000A071F6E77C630420002901D0022801D391
:102660000020704775225043024A104400690860F8
:1026700001207047E4CA0220022801D300207047DD
:10268000014901EB00107047768D022001488068F7
:102690007047000060100020022801D3002070471E
:1026A00059214843014908447047000040A00220D6
:1026B000022801D300207047C0EBC000024900EBA4
:1026C00040000844704700004C8D022000487047CD
:1026D0009A98022000487047989602200148806F1F
:1026E0007047000080060020014800787047000015
:1026F00080060020022801D3042070470349C0EB64
:10270000C000085C00F00F0070470000F6CB02200C
:10271000022801D3012070470149085C704700007E
:102720009410002000487047C0E90420F0B502462C
:102730000020022A00D3F0BD00210C4B03EB420520
:1027400013F812400A4A641E012693688C4208DC82
:102750006A78521E8A4204DB06FA01F2134200D064
:102760001043491CC9B20829F0D3F0BDD01E002087
:102770005CE40420034890F82000022800D90220DD
:10278000704700009A98022010B5022801D300205B
:1027900010BD0549C0EB80100144253110220348CB
:1027A000FDF7DEFD014810BD0E39042094300420F1
:1027B000022801D3002070470249C0EB8010084472
:1027C000006870470E390420022801D300207047AA
:1027D0000149085C70470000BA19002070B50C462A
:1027E000022801D3002070BD00EB40012D4800EB12
:1027F000810595F8210061284AD0303815F8221F4C
:1028000000EB80006FF02F0606EB40000844C0B2DA
:1028100009F095F960716878A978303800EB80008C
:1028200006EB40000844C0B209F089F92071E8784D
:102830002979303800EB800006EB40000844C0B234
:1028400009F07DF9E0706879A979303800EB8000F3
:1028500006EB40000844C0B209F071F9A070E879B5
:10286000297A303800EB800006EB40000844C0B203
:1028700009F065F96070687AA97A303800EB800059
:1028800006EB40000844C0B209F059F9207006E098
:10289000AA2020706070A070E0702071607101202B
:1028A00070BD00009A980220014901EB00107047AA
:1028B00073AC02200A2801D900207047014908445E
:1028C000407870475C3004200146012809D0022975
:1028D00005D0032907D0052907D100F0BBB900F0C6
:1028E000F3B900F00DBAFFF71DBF704700487047FD
:1028F000D01E0020164991F83D1000291FD005294F
:102900001DD00C291BD00E2919D0092917D0082950
:1029100017D0022917D00B2917D00D2915D00F2950
:1029200013D0012911D00A290FD006290DD007296B
:102930000BD0032909D0042907D0FFF739BFFFF7CF
:1029400037BFFFF751BDFFF77DBD00F0C5B90000EF
:102950009A9802202DE9FF41002603964FF4BD67A7
:10296000ADF800700124ADF8024003AD01958DF87B
:1029700008406846FFF754FC9DF80C0064280CD909
:102980000396ADF80070ADF80240019502208DF875
:1029900008006846FFF744FC002004B0BDE8F08161
:1029A00010B5FFF763FD012801D0002010BD012004
:1029B00010BD0000004870475CE404207CB50E4860
:1029C0000E4D012200684FF000048168A878824013
:1029D000114208D00A4941EA0020009401940822DB
:1029E000694620F05DF9A878401CC0B2A87008289C
:1029F00000D3AC7001207CBDFC1E0020501F0020C5
:102A0000F000860200281CD00A001AD000220079AB
:102A1000904218D148780B7840EA0323C2EBC200F9
:102A200000EB40020B4810440381CA788B7842EADD
:102A3000032242814A79097942EA012181810120F8
:102A4000704700207047521CD2B2082AE0D3002001
:102A50007047000068EA04207CB5194D1949687870
:102A600041EA00200024009401940822694620F0E5
:102A700017F96978144BC1EBC10000EB4000184412
:102A8000027D052A02D30522027501E0521C02755F
:102A9000007D801E032805D3491CC8B26870082831
:102AA00000D36C706878C0EBC00000EB40001844A5
:102AB000007D022802D3052800D000BF01207CBD84
:102AC000501F0020F000840268EA0420002819D07A
:102AD0000A0017D000220079904215D1C2EBC20043
:102AE00000EB40020B480023104403758A78827380
:102AF0000A79C2734A7982748A794274C9790174F5
:102B00000120704700207047521CD2B2082AE3D33C
:102B10000020704768EA04207CB50E480E4D012263
:102B200000684FF00004816828788240114208D084
:102B30000A4941EA0020009401940822694620F0E5
:102B4000AFF82878401CC0B22870082800D32C7039
:102B500001207CBDFC1E0020501F0020F0008302DD
:102B600070B5002847D00A0045D000240079A04263
:102B700043D1C8780A788B7840EA02604A78120418
:102B800042EA0322104300EE100AF2EE040AC4EBFC
:102B9000C40220EE200A02EB42031B4ABCEEC00A2C
:102BA0001A4410EE100A1060CB790D7943EA0563E0
:102BB0004D7989792D0445EA01210B4300EE103A45
:102BC00020EE200ABCEEC00A10EE101A51600F4928
:102BD0000122A2400968C96811420AD0B0F5FA7F03
:102BE00007D9012120461CF09DF92146002021F043
:102BF0003FF9012070BD002070BD641CE4B2082CB8
:102C0000B5D3002070BD000068EA0420FC1E00203F
:102C100010220149FDF7A4BBE6CB02200148006861
:102C2000704700004410002000487047ED980220D3
:102C30000148006870470000C8960220022801D3AE
:102C4000002070470249C0EBC00011F82000704717
:102C50000CCD022000487047D0E804200148407D98
:102C6000704700005C300420014800787047000085
:102C70005C30042001488068704700006C1600201A
:102C8000022801D3002070470149085C704700000A
:102C90003D170020022801D30020704759214843E6
:102CA00001490844407E704740A00220022801D319
:102CB000042070470349C0EBC000085C00F00F001F
:102CC00070470000F6CB02200048704768EA0420F5
:102CD00000BF002070470000022801D30020704789
:102CE000014951F820007047A01A0020022801D3A2
:102CF000002070470149085C70470000841A0020DA
:102D000000487047F0EB0420022801D33B207047B5
:102D1000752148430249084490F874007047000048
:102D2000E4CA0220002807D031B100792038C0B2AF
:102D3000082803D30020704700207047C0EBC00074
:102D4000034A00EB40001044002101750120704748
:102D5000C0E904202DE9F04F2DED068B91B04FF026
:102D6000000A002828D000260020FB4C12F0A8FE04
:102D700042F210714FF00209884233D384F8039075
:102D800084F800901D21304620F04EFF312130465E
:102D90000BF07CFCF1A029F0E3F80021304620F094
:102DA0004FFD0322F6A130461AF01EFA002011B0A2
:102DB000BDEC068BBDE8F08F0E21002020F034FF23
:102DC000312100200BF062FC0021084620F038FD84
:102DD000ECA029F0C5F80322F2A100201AF004FAB1
:102DE0000020E4E7304612F0CFFE01282DD0EEA0FF
:102DF00029F0B6F8F34F4FF4FA603880332078802A
:102E0000F149B720002508702D2048700D724F60E1
:102E1000EE4800681BF006F864201BF02FFBEC481E
:102E200005804FF0C80847F230521021284607F0BD
:102E3000DAFCE74906EB460000EBC60000EB010BAD
:102E400006EB460507EB860745E084F8039084F817
:102E500000900F21304620F0E7FE312130460BF084
:102E600015FC0021304620F0EBFC0322D9A13046AE
:102E70001AF0BAF9D8A029F073F8002097E747F2C2
:102E800030521021304607F0A3FC172860D008F11B
:102E900001081FFA88F8B8F1CD0F01D94FF0C80822
:102EA00008EB88004FF6FF7101EA400038803320BC
:102EB0007880C548B72100F8251000EB85012D2248
:102EC0004A700E724F60C14800681AF0ABFF4FF4B1
:102ED000FA701BF0D3FA3888BBF80010A0F5967290
:102EE0009142CCDD00F596708142C8D2BAF1170F3D
:102EF00051D0304612F0E4FD42F2107188423AD3CC
:102F000084F8029084F800900322B7A130461AF0AA
:102F10006BF91121304620F087FEB4A029F020F88B
:102F2000A948B72100F8251000EB85012E224A7030
:102F3000002048800E72A54800681AF073FF002137
:102F4000304620F07DFC32201BF098FA00202EE75E
:102F50004FF0170A84F8029084F800901721304649
:102F600020F062FE0322A5A130461AF03DF9A4A08C
:102F700028F0F6FFBAE7304608F0EAF801213046BB
:102F800020F046FE012307220421304620F092FC67
:102F90009FA028F0E5FFBAF1170F7CD009A93046B1
:102FA000FFF76EFA01A8FFF733FE01A80FC8CDE9BD
:102FB0000723CDE90501BDF824004FF4FA618842EA
:102FC00001D8398008E0BDF81D10884201D838804A
:102FD00002E041F288303880332078807A48B72187
:102FE00000F8251000EB85012D224A700E724F600B
:102FF000764800681AF016FF64201BF03FFA7A88C2
:10300000398886A028F0ACFF0020ABF8000044F619
:1030100020621021304607F0E6FB4FF4FA780AE010
:1030200044F620621021304607F0D2FB17287CD0EE
:1030300040461BF023FA3888BBF80010A0F59672C2
:103040009142EDDD00F596708142E9D2BAF1170F99
:10305000A3D0304612F034FD4FF00A08B0FBF8F070
:103060000B90304612F0C6FCB0FBF8FB304608F07F
:1030700093F84FF47A701BF001FA304612F020FDFD
:10308000B0FBF8FA304612F0B5FCB0FBF8F730466A
:1030900008F078F800E09FE14FF47A701BF0EEF949
:1030A000304612F00DFDB0FBF8F00A90304612F0F9
:1030B000A1FCB0FBF8F8304607F04EFE304607F0B2
:1030C00041FE0A98CDE9010853465A4600975F48E9
:1030D0000B9928F045FF0B98642148430BEBCB017B
:1030E000C1EB8B11B0EB810F06D8CBEB0B1101EBD1
:1030F0004101B0EB810F2ED284F8029084F8009049
:10310000032253A130461AF06FF80E21304620F00A
:103110008BFD012304221946304620F0CBFB00E052
:1031200003E04CA028F01CFF56E14FF0170A84F88A
:10313000029084F8009003224DA130461AF054F812
:103140001721304620F070FD2DA028F009FF4948D6
:1031500028F006FF7AE78FE0E5CA02204B312F4BBB
:10316000322042617474657220566F6C204C61721B
:103170006765207468616E203330560D0A000000C8
:1031800046313800494E534F4C5554494F4E4552E5
:103190005220706172616D65746572312065727262
:1031A0000D0A000046313700496E73756C61746911
:1031B0006F6E20436865636B20426567696E0D0A18
:1031C00000000000701200204CC80220A01E002049
:1031D0007C63042046313900E794B5E6B1A0E58F61
:1031E0008DE68EA50D0A00004632310044434F554E
:1031F0005420455252310D0A000000004632300082
:103200003230532054494D454F55540D0A000000AB
:103210006B314B32204F70656E0D0A00424D5344A6
:10322000656D616E64496E666F2E566F6C203D2031
:1032300025642C424D5344656D616E64496E666F22
:103240002E437572203D2025640D0A00C4FE02083D
:1032500046323300E7BB9DE7BC98E6A380E6B58B1A
:10326000E59B9EE8B7AFE69585E99A9C5C720A00FB
:103270004632320014FF0208642F03D3AAF1C800BB
:10328000874216D984F8029084F8009003228CA11A
:10329000304619F0A9FF0E21304620F0C5FC01236D
:1032A00004221946304620F005FB86A028F058FE7F
:1032B00092E00A98A0EB080B0BFB07FB5846FDF7C2
:1032C0006EFACDE90F1041EC180B4046FDF767FA96
:1032D000CDE90D1041EC190B3846FDF760FA9FED72
:1032E000821B53EC112BFDF779F953EC192BFDF7E9
:1032F00075F941EC190BAAEB07000C9000FB08F0E4
:10330000FDF74DFA53EC192BFDF7C1F853EC182BD0
:10331000FDF75EF941EC180BA7EB0A0000FB08B0C3
:10332000FDF73DFA8A46074653EC182BFDF7C8F91E
:103330009FED6FAB53EC1A2BFDF750F9FDF73CFAFC
:103340008046DDE90F1041EC180BDDE90D1041EC72
:10335000190B0C98FDF723FA9FED671B53EC112B0B
:10336000FDF73CF953EC192BFDF738F953EC182B0A
:10337000FDF72EF941EC110B4AEC107B53EC112BAD
:1033800051EC100BFDF79CF953EC1A2BFDF726F9C5
:10339000FDF712FA07463A46414659A028F0E0FDEB
:1033A0004DF2D861884501D38F4215D284F802903E
:1033B00084F80090032258A1304619F015FF0E2121
:1033C000304620F031FC012304221946304620F01B
:1033D00071FA52A028F0C4FD5649B72001F8250023
:1033E00001EB85012E20487001274F800E72524854
:1033F00000681AF017FD32201BF040F83046FFF746
:1034000087F960B9304607F083FC0021304620F090
:10341000FFFB002307220421304620F04BFA304600
:10342000FFF776F901280DD04FF47A701BF026F8DB
:103430000021304620F004FA207802283ED0277080
:103440000120B4E441F2883842461021304607F0AA
:10345000CAF942F2107509E042461021304607F0E1
:10346000B7F9172815D064201BF008F8304612F081
:1034700027FBA842F0D2304607F04AFC0021304634
:1034800020F0C6FB002307220421304620F012FA68
:10349000CEE784F8049084F80090032227A13046F8
:1034A00019F0A2FE1521304620F0BEFB3021304637
:1034B0000BF0ECF822A028F053FDDCE7002076E4C6
:1034C00046323400E6ADA3E8B49FE6AF8DE7BABF5D
:1034D000E5AFB9E59CB0E998BBE580BCE5BE88E501
:1034E000B08F5C720A0000005566035633F9234022
:1034F0000000000000F326415566035633F92540CD
:103500004A59205270203D2025642C526E203D20C7
:1035100025640D0A0000000046323500E7BB9DE738
:10352000BC98E6A380E6B58BE69585E99A9CE38096
:10353000800D0A004CC80220A01E00204632360032
:10354000313131330D0A00002DE9F04F2DED068B9E
:1035500091B04FF0000A002829D00126FE4C3046D9
:1035600012F0AEFA014642F210704FF002098142A9
:1035700033D384F8039084F800901D21304620F066
:1035800053FB312130460BF081F8F4A028F0E8FC21
:103590000021304620F054F90222F9A1304619F0FA
:1035A00023FE002011B0BDEC068BBDE8F08F0E218C
:1035B000012020F039FB312101200BF067F80021B8
:1035C000012020F03DF9EFA028F0CAFC0222F5A16D
:1035D000012019F009FE0020E4E7304612F0D4FA89
:1035E000012835D0F0A028F0BBFCF6494FF4FA6270
:1035F000081D8A8033214180F34FB7253D733A4639
:103600002D2302F10C0153730E724860DFF8BCB336
:10361000DBF800001AF006FC64201AF02FFFEC49DA
:103620000020A1F80B004FF0C80847F230521021DB
:10363000304607F0D8F8E349E54A06EB460000EBD0
:10364000C60000EB020B06EB460501EB860745E0E2
:1036500084F8039084F800900F21304620F0E4FABB
:10366000312130460BF012F80021304620F0E8F806
:10367000D8A028F075FC0222DAA1304619F0B4FD7A
:1036800000208FE747F230521021304607F0A0F8B3
:10369000172860D008F101081FFA88F8B8F1CD0F9B
:1036A00001D94FF0C80808EB88004FF6FF7101EA16
:1036B0004000388033207880C348B72100F82510B7
:1036C00000EB85012D224A700E724F60BF480068E2
:1036D0001AF0A8FB4FF4FA701AF0D0FE3888BBF845
:1036E0000010A0F596729142CCDD00F596708142F3
:1036F000C8D2BAF1170F51D0304612F0E1F942F2B8
:10370000107188423AD384F8029084F80090112115
:10371000304620F089FAB4A028F022FCAA49B7204C
:1037200001F8250001EB85012E204870002048801B
:103730000E72A64800681AF075FB0021304620F092
:103740007FF80322ACA1304619F04EFD32201AF06A
:1037500095FE002026E74FF0170A84F8029084F8BF
:1037600000901721304620F05FFA0222A3A13046D4
:1037700019F03AFDA2A028F0F3FBBAE7304607F0B3
:10378000E7FC0121304620F043FA012307220421FF
:10379000304620F08FF89EA028F0E2FBBAF1170F18
:1037A0007ED009A93046FEF76BFE01A8FFF730FA7C
:1037B00001A80FC8CDE90723CDE90501BDF8240014
:1037C0004FF4FA61884201D8398008E0BDF81D1035
:1037D000884201D8388002E041F2883038803320B6
:1037E00078807948B72100F8251000EB85012D225B
:1037F0004A700E724F60754800681AF013FB64201F
:103800001AF03CFE7A88398884A028F0A9FB0020B1
:10381000ABF8000044F620621021304606F0E3FFCA
:103820004FF4FA780AE044F620621021304606F0A0
:10383000CFFF17287BD040461AF020FE3888BBF80F
:103840000010A0F596729142EDDD00F59670814270
:10385000E9D2BAF1170FA3D0304612F031F94FF088
:103860000A08B0FBF8F00B90304612F0C3F8B0FB3A
:10387000F8FB304607F090FC4FF47A701AF0FEFD2A
:10388000304612F01DF9B0FBF8FA304612F0B2F8EB
:10389000B0FBF8F7304607F075FC4FF47A7000E0A3
:1038A0009EE11AF0EBFD304612F00AF9B0FBF8F099
:1038B0000A90304612F09EF8B0FBF8F8304607F058
:1038C0004BFA304607F03EFA0A98CDE90108534614
:1038D0005A4600975D480B9928F042FB0B986421EB
:1038E00048430BEBCB01C1EB8B11B0EB810F06D83A
:1038F000CBEB0B1101EB4101B0EB810F2AD284F825
:10390000029084F80090032251A1304619F06CFC1B
:103910000E21304620F088F9012304221946304652
:103920001FF0C8FF4BA028F01BFB59E1FFE74FF049
:10393000170A84F8029084F800901721304620F08E
:1039400073F92FA028F00CFB494828F009FB03224B
:1039500048A191E094E000005ACB02204B312F4B5C
:10396000322042617474657220566F6C204C617213
:103970006765207468616E203330560D0A000000C0
:1039800046370000494E534F4C5554494F4E45520F
:103990005220706172616D6574657231206572725A
:1039A0000D0A000046360000496E73756C6174693B
:1039B0006F6E20436865636B20426567696E0D0A10
:1039C000000000007012002064C80220A01E002029
:1039D0007C630420E794B5E6B1A0E58F8DE68EA563
:1039E0000D0A00004638000044434F55542045520C
:1039F00052310D0A00000000463130004639000007
:103A00003230532054494D454F55540D0A000000A3
:103A10006B314B32204F70656E0D0A00424D53449E
:103A2000656D616E64496E666F2E566F6C203D2029
:103A300025642C424D5344656D616E64496E666F1A
:103A40002E437572203D2025640D0A00C4FE020835
:103A500046313200E7BB9DE7BC98E6A380E6B58B14
:103A6000E59B9EE8B7AFE69585E99A9C5C720A00F3
:103A700014FF020846313100304619F0B5FBE8E684
:103A8000642F03D3AAF1C800874216D984F80290A4
:103A900084F8009003228CA1304619F0A5FB0E217A
:103AA000304620F0C1F801230422194630461FF0A9
:103AB00001FF86A028F054FA92E00A98A0EB080BC8
:103AC0000BFB07FB5846FCF76AFECDE90F1041ECF3
:103AD000180B4046FCF763FECDE90D1041EC190BC5
:103AE0003846FCF75CFE9FED821B53EC112BFCF774
:103AF00075FD53EC192BFCF771FD41EC190BAAEB8A
:103B000007000C9000FB08F0FCF749FE53EC192B62
:103B1000FCF7BDFC53EC182BFCF75AFD41EC180BDD
:103B2000A7EB0A0000FB08B0FCF739FE8A460746FF
:103B300053EC182BFCF7C4FD9FED6FAB53EC1A2B25
:103B4000FCF74CFDFCF738FE8046DDE90F1041EC38
:103B5000180BDDE90D1041EC190B0C98FCF71FFE5A
:103B60009FED671B53EC112BFCF738FD53EC192B21
:103B7000FCF734FD53EC182BFCF72AFD41EC110B3C
:103B80004AEC107B53EC112B51EC100BFCF798FD19
:103B900053EC1A2BFCF722FDFCF70EFE07463A46C3
:103BA000414659A028F0DCF94DF2D861884501D38F
:103BB0008F4215D284F8029084F80090032258A115
:103BC000304619F011FB0E21304620F02DF801236C
:103BD0000422194630461FF06DFE52A028F0C0F9AD
:103BE0005648B72100F8251000EB85012E224A70B7
:103BF00001274F800E72524800681AF013F93220E4
:103C00001AF03CFC3046FEF783FD60B9304607F001
:103C10007FF8002130461FF0FBFF0023072204211C
:103C200030461FF047FE3046FEF772FD01280DD0EA
:103C30004FF47A701AF022FC002130461FF000FE8B
:103C4000207802283ED027700120ABE441F288386A
:103C500042461021304606F0C6FD42F2107509E0DA
:103C600042461021304606F0B3FD172815D06420D7
:103C70001AF004FC304611F023FFA842F0D230467F
:103C800007F046F8002130461FF0C2FF002307224C
:103C9000042130461FF00EFECEE784F8049084F82D
:103CA0000090152130461FF0BFFF302130460AF04A
:103CB000EDFC032223A1304619F096FA22A028F049
:103CC0004FF9DCE700206DE446313300E6ADA3E8B0
:103CD000B49FE6AF8DE7BABFE5AFB9E59CB0E99810
:103CE000BBE580BCE5BE88E5B08F5C720A000000D1
:103CF0005566035633F923400000000000F32641C7
:103D00005566035633F925404A59205270203D200C
:103D100025642C526E203D2025640D0A0000000011
:103D200046313400E7BB9DE7BC98E6A380E6B58B3F
:103D3000E69585E99A9CE380800D0A0064C802201C
:103D4000A01E002046313500313131330D0A00000C
:103D50002DE9F04F8BB0044600200990022C7DD253
:103D60007520FC4F04FB00F6F5191035204611F0C4
:103D700035FE012810D000230522042120461FF023
:103D800099FD022007F0C8F900286DD0204611F0F7
:103D900011FD002847D142E0204611F00BFD18B973
:103DA000204611F015FD98B3204611F03DFD012885
:103DB00004D0204611F038FD032829D1204606F012
:103DC000A7FF002120461FF023FF00230722042124
:103DD00020461FF06FFD204606F086FFA87820F0F1
:103DE0000C00001DA870B85D40F00200B855032219
:103DF000D9A1204619F0F8F90521204602F0BCFBB4
:103E00009DF8240040F004000990D4A028F0A8F800
:103E100001230522042120461FF04CFDB1E7204676
:103E200011F0D6FCD8B1A87820F00300401CA8708F
:103E3000B85D40F00200B8550222CAA1204619F030
:103E4000D3F9292120461FF0EFFE0921204602F078
:103E500093FB9DF8240040F0040001E0F8E303E048
:103E60000990C1A028F07CF8204611F085FD0128BA
:103E700009D000230422194620461FF01BFDBC4830
:103E8000806868B352E0204611F094FC18B92046CF
:103E900011F09EFCE8B1A87820F00300401CA87047
:103EA000B85D40F00200B8550322B2A1204619F0D7
:103EB0009BF9032120461FF0B7FE0821204602F09F
:103EC0005BFB9DF8240040F004000990A6A028F0B8
:103ED00047F801230422002120461FF0EBFCCEE727
:103EE000204611F067FC18B9204611F071FCE8B1CA
:103EF000A87820F00300401CA870B85D40F00200D4
:103F0000B85503229CA1204619F06EF916212046CF
:103F10001FF08AFE3321204602F02EFB9DF824007C
:103F200040F00400099090A028F01AF8204611F003
:103F30000FFD012811D001220023114620461FF059
:103F4000B9FC01230622042120461FF0B3FC2046C1
:103F500011F044FD01283ED073E0204611F08AFCA8
:103F6000012831D1204611F033FC68BB204611F006
:103F70005BFC012804D0204611F056FC032823D115
:103F8000A87820F00C00001DA870B85D40F0020079
:103F9000B855032279A1204619F026F90D212046B3
:103FA0001FF042FE1721204602F0E6FA9DF8240099
:103FB00040F00400099072A027F0D2FF01231A46B6
:103FC000194620461FF076FC0023062204212046D5
:103FD0001FF070FCBBE700230422012120461FF0E4
:103FE00069FC00230522012120461FF063FC022208
:103FF0000023114620461FF05DFC0023022203210E
:1040000020461FF057FC00230522032120461FF005
:1040100051FC00230622032120461FF04BFC002305
:104020000722032120461FF045FC0023072202211E
:1040300020461FF03FFC00230522022120461FF0EE
:1040400039FC01A8FEF7E4FD01A80FC8CDE907235C
:10405000CDE9050104EB440000EBC4014A4801EB43
:10406000000ABAF8008041F6B050804531D2BDF860
:104070001800C83040452CD2204611F09BFB18B9DF
:10408000204611F0A5FBF0B1E87820F00C00001DEF
:10409000E870B85D40F00200B85503223BA120460D
:1040A00019F0A2F82021204602F066FA18212046D5
:1040B0001FF0BAFD9DF8240040F00400099041462D
:1040C00033A027F04DFF01230722032120461FF0D4
:1040D000F1FB04EB840000EBC4012F4801EB000965
:1040E000B9F8060000F5967141455FD240F6B83147
:1040F00088425BD3204611F05DFB18B9204611F0D1
:1041000067FB00B3E87820F00C00001DE870B85D94
:1041100040F00200B855032220A1204619F064F8AF
:104120002021204602F028FA182120461FF07CFDAD
:104130009DF8240040F004000990B9F8062041469B
:1041400017A027F00DFF01230722032120461FF0AF
:10415000B1FB35E0E4CA02204531380035310D0AA3
:10416000000000004538000035320D0A0000000054
:104170005CE40420453137004536360045313600D1
:1041800035330D0A000000007C6304204531350002
:1041900035352C25780D0A0002C602204531340041
:1041A00035362C25782C25780D0A0000BDF818002E
:1041B000404505D300230722032120461FF07AFB48
:1041C00011F030FC8146BDF8140041F2707B484587
:1041D0002ED2D9452CD2204611F0ECFA18B920463F
:1041E00011F0F6FAE8B1E87820F00300401CE8701E
:1041F000B85D40F00200B8550322FDA1204618F03A
:10420000F3FF1421204602F0B7F90A2120461FF0DF
:104210000BFD9DF8240040F004000990F5A027F064
:104220009FFE01230322022120461FF043FB05E0ED
:1042300000230322022120461FF03CFBBDF816009C
:1042400048452ED9D9452CD2204611F0B3FA18B9D9
:10425000204611F0BDFAE8B1E87820F00300401CD8
:10426000E870B85D40F00200B8550322E3A1204693
:1042700018F0BAFF1421204602F07EF90A212046E8
:104280001FF0D2FC9DF8240040F004000990D9A052
:1042900027F066FE01230422022120461FF00AFBBC
:1042A00005E000230422022120461FF003FBD4492D
:1042B000C4EBC400085C000657D5204611F0B4FAE0
:1042C000012804D0204611F0AFFA03284DD1002078
:1042D00011F070FA18B9002011F07AFAE8B1E87814
:1042E00020F00300401CE870387840F0020038707D
:1042F0000322C4A1002018F077FF1921002002F04A
:104300003BF9112100201FF08FFC9DF8240040F0A4
:1043100004000990BCA027F023FE012011F04AFA06
:1043200018B9012011F054FAF8B1E87820F0030030
:10433000401CE87097F8750040F0020087F875009F
:104340000322B3A1012018F04FFF1921012002F030
:1043500013F9112101201FF067FC9DF8240040F0A3
:1043600004000990A8A027F0FBFD1AF0D5F8DFF8AB
:10437000A4B24BF82400204611F056FA014640F250
:10438000452204FB02F0A44AABF1080902EB40020B
:1043900009F11003012915D0204611F045FA032830
:1043A00010D05BF8240043F82400906949F82400F9
:1043B00000200A900AAA29462046FDF761FD01283F
:1043C0004ED05FE0204611F0F5F918B9204611F003
:1043D000FFF9A8B359F824009169884231D15BF8FC
:1043E000240053F82420904201D3821A01E0D243E2
:1043F0000244DFF828C26245DAD343F8240049F8C2
:104400002410E87820F00300401CE870B85D40F00C
:104410000200B855032282A1204618F0E5FE3221A1
:10442000204602F0A9F8292120461FF0FDFB9DF847
:10443000240040F0040009907AA027F091FDB7E72E
:1044400006E05BF8240043F8240049F82410AFE7A5
:104450005BF8240043F82400906949F82400A7E79A
:104460009DF82800042807D1032271A1204618F0E6
:10447000BBFE70A027F074FD9DF824009DF8281065
:1044800008430990204611F0F5F9DFF888B104EBF4
:104490008409ABF1280B012809D1204611F0C4F999
:1044A000012826D0204611F0BFF9032821D01AF0A8
:1044B00033F84BF824005749203941F824001AF00A
:1044C0002BF85449183941F82400083141F82400E8
:1044D000204611F0E7FA002870D0012307220421BA
:1044E00020461FF0E7F9554890F8450000287DD098
:1044F00007E11AF011F84BF824005149BAF80220EC
:1045000009EB010B41F20403BBF80210591A8A426D
:104510003AD94049203951F82410884201D3401A31
:1045200001E0C943084443F69821884230D320462D
:1045300011F040F918B9204611F04AF918B3E8789B
:1045400020F00300401CE870B85D40F00200B85550
:1045500003223CA1204618F047FE2221204602F00B
:104560000BF81A2120461FF05FFB9DF8240040F055
:104570000400099001230622032120461FF09AF926
:1045800031A027F0EDFC03E02249203941F8240056
:1045900019F0C2FF1F49183941F82400BBF8001078
:1045A000BAF8002001F596718A4273D91949103979
:1045B00051F82410884202D3401A02E06EE0C94349
:1045C000084442F21071884282D3204611F0F2F87A
:1045D00018B9204611F0FCF848B1E87820F00C003A
:1045E000001DE870B85D40F0020032E05DE049E097
:1045F00045313300616335370D0A00004531320023
:10460000F6CB022045363300646335370D0A0000CF
:1046100045363400481200205FA30220C0D40100B8
:1046200045363500706F77657235370D0A0000002A
:104630004531310035380D0A000000009A980220FB
:104640001CC60220453130003537370D0A200000E6
:1046500080E0B855022243A1204618F0C5FD202174
:10466000204601F089FF182120461FF0DDFA9DF851
:10467000240040F004000990BBF8002041463AA015
:1046800027F06EFC01230722032120461FF012F9B8
:104690001EE7FFE73A4941F8240019E70023072203
:1046A000042120461FF006F91DE7204606F03CFCD9
:1046B000344901EB0918B8F84A10884206D8204658
:1046C00006F03DFCB8F84E1088421AD9A87820F0C0
:1046D0000300401CA870B85D40F00200B8550222EB
:1046E00029A1204618F080FD0C2120461FF09CFADD
:1046F0001621204601F040FF9DF8240040F0040000
:104700000990204611F056F820B9204611F060F8C3
:1047100000281FD0BA5D002A1CD021461BA027F01C
:104720001FFC204A04EB4400B82102F8201002EBE1
:10473000800123234B700120488009A848600C7237
:104740000F4830384CB1C06819F06CFB4FF47A70E8
:1047500019F094FE0BB0BDE8F08F1146806819F097
:1047600061FBF3E74539000035352C566F6C203D71
:104770002025642C42434C203D2025640D0A000076
:10478000381200200C5D02204537000047554E20AE
:104790003D2025642C546F74616C4572723A257803
:1047A0000D0A00003CC9022010B50446022C33D289
:1047B000204611F0E3F9E3280DD0204611F00EF960
:1047C000002829D1012120461FF0E2F9204610F0EF
:1047D000F1FF58B10EE0204611F000F901281BD17D
:1047E0002046BDE8104000211FF0D2B9204610F04D
:1047F000EFFF28B12046BDE8104001211FF020B88E
:1048000020460CF0B7FF0021204605F0E5FE2046CB
:10481000BDE8104005F0AABE10BD70B505460020E9
:1048200006F07AFC0446284611F0A6F8A0420FD004
:10483000012C09D1284606F09BFC4FF4FA7019F0C0
:104840001DFE284606F074FA214628461FF096F908
:10485000284606F027FB01462846BDE870401FF0B9
:1048600083B900002DE9F04100242E480078FEF7BE
:104870002BF8054628001BD019F00AFB00212A4B13
:1048800003EB810000690443491CC9B20229F7D334
:1048900000210126C1EBC10000EB40004219107D50
:1048A000052808D3186806FA01F73843186007E0AE
:1048B0000020BDE8F0811F6806FA01F087431F6001
:1048C000507C800705D5586806FA01F210435860FD
:1048D00004E05A6806FA01F082435A60186806FA42
:1048E00001F2104202D15868104203D098689043F8
:1048F000986002E0986810439860224206D1986858
:10490000104203D0D8681043D86002E0D8689043C2
:10491000D860491CC9B20829BCD319F0CFFA0120CC
:10492000C7E70000C81E00205CE4042030B4002863
:1049300005D0017A022904D3002030BC7047002042
:10494000FBE70C4A02EB01120021437812F83140D8
:104950009C4208D102EBC104646824B102EBC1019E
:10496000496830BC0847491CC9B20229EED300206F
:10497000E3E7000010F4020810B5012809D002286E
:1049800004D0032808D005280BD108E002F07AFEF5
:1049900007E002F0FBFE04E0FDF7BEFC01E001F0E1
:1049A0005FF9012010BD00007CB50546022D29D21B
:1049B00041B3088840B31F484419207F012825D0FF
:1049C000086800908888ADF804001B49BDF8000015
:1049D00049781CF0CDFB0246D2B1BDF8021002EBC3
:1049E0008200B1EB001F05D94FF6FF7101EA0010FC
:1049F000ADF80200082020769DF8050088B1022855
:104A000014D107E000207CBD00207CBD00207CBDCF
:104A100000207CBD694628460BF04EFD30B90020D1
:104A20007CBD694628460BF045FB08B101207CBDE2
:104A300000207CBD5CE40420C81E002070B5002866
:104A400013D0406898B11A4902880A8040884FF60E
:104A5000FF7300EB800003EA40034B8001200871E4
:104A60001448047F2CB1002070BD002070BD0020D0
:104A700070BD847E1048012C08D00A684260898885
:104A80000181012100201FF05FF80FE00A4C241D76
:104A90002588AA4202D16288934207D00A68426000
:104AA00089880181012100201FF04EF8012070BD8E
:104AB000A8E404205CE40420A01E002070B50028B7
:104AC00016D04068C8B121490288CA8040884FF694
:104AD000FF7300EB800003EA40030B810120887222
:104AE0001B48447F74B11BA027F03AFA002070BD28
:104AF0001AA027F035FA002070BD1BA027F030FA6D
:104B0000002070BDC47E1B48012C0AD0D1F80620BD
:104B1000C0F80A204989C181012108461FF014F814
:104B200011E0144C0A342588AA4202D162889342CB
:104B300009D0D1F80620C0F80A204989C181012195
:104B400008461FF001F8012070BD0000A8E4042011
:104B50005CE40420617364660D0A0000617364669E
:104B6000617364660D0A00006173617364660D0A07
:104B700000000000A01E0020034608461146012B3D
:104B800009D0022B05D0032B07D0052B07D101F04C
:104B900091B802F0A1BD02F023BEFDF7E7BB70475C
:104BA00070B5002807D040880D4C002528B10120A1
:104BB00084F8200003E0002070BD84F8205009A094
:104BC00027F0CEF90B484580058006210171A07EB3
:104BD00018B1002108461EF0B7FF012070BD00008B
:104BE0005CE4042047554E5F412053544F500D0A5A
:104BF00000000000A8E4042070B5002807D0408819
:104C00000D4C002528B1012084F8210003E000208C
:104C100070BD84F8215009A027F0A2F90B48058146
:104C2000C58006218172E07E18B1002101201EF0AE
:104C30008BFF012070BD00005CE4042047554E5FEF
:104C4000422053544F500D0A00000000A8E40420F5
:104C5000012070470EB5B0F57A7F0CD85AB140F2FA
:104C6000EC43ADF8003001928DF808106946FCF76E
:104C700091FD01200EBD00200EBD0EB564280CD89C
:104C80005AB140F2EA53ADF8003001928DF80810A5
:104C90006946FCF7DBF801200EBD00200EBD0EB505
:104CA00064280CD85AB140F2E953ADF800300192B3
:104CB0008DF808106946FCF7C9F801200EBD0020E8
:104CC0000EBD0000002809D041B1007800F07F003F
:104CD000401EC0B2082803D3002070470020704750
:104CE000CA788B78C0EBC00042EA032200EB400395
:104CF0000D4802EB82021844C2F31A1202814A796B
:104D00000B7942EA032202EB8202C2F31A124281B9
:104D1000CA79897942EA012101EB8101C1F31A11B3
:104D20008181012070470000F0EB04202DE9F04163
:104D300000280AD049B1007800F07F00401EC2B2BE
:104D4000082A04D30020BDE8F0810020FBE7C878E2
:104D50008B78C2EBC20440EA032324482044401C61
:104D600043804C790D7944EA052505808C7944719E
:104D7000C9790171C2EBC20000EB40061B48002755
:104D800038303044077505604360437C8D0965F316
:104D90004513857C4F0967F345150F0967F38615A1
:104DA0008574CD0865F3C30361F30003610861F303
:104DB00004134374002401250C4895400C4FA83877
:104DC00006444FF4FA783868C068284207D0306843
:104DD000404504D9601CC0B201211AF079F8641C66
:104DE000E4B2082CEFD30120ADE70000B8EB0420BB
:104DF000FC1E002000280AD0064902690A600178DA
:104E0000490702D5044980690860012070470020E5
:104E100070470000F6110020FE11002000280AD083
:104E2000064902694A600178490702D50449806948
:104E3000486001207047002070470000F6110020F4
:104E4000FE1100202DE9FF5F044600200190029032
:104E5000FDF7B0FA0090ACB1616899B1FE4E607890
:104E6000FE4D4FF03A08A6F5DF674FF00B0906F24A
:104E700002220A280DD2DFE800F00C090D0D1515ED
:104E80001EF6F7F4002004B0BDE8F09F097800F0AA
:104E900031FA28E232780AB10020F4E7097800F00C
:104EA00029FA20E23278012A01D00020EBE70978C4
:104EB00000F020FA17E2EA4890F83D0002286ED18F
:104EC00096F82C0040B1002128680EF0D5F9012099
:104ED0001EF07CFD0020D6E70020FDF7C7FA012870
:104EE00050D0FDF721FB82469AF800B05FEA0A0035
:104EF00053D0002010F068FD0178427841EA022486
:104F00008178C078090441EA00600443D548B4FBC5
:104F1000F0F0C0B210F02AFF8DF80400D148B4FBC5
:104F2000F0F100FB1141D048B1FBF0F0C0B210F03D
:104F30001DFF8DF80500CC48B4FBF0F100FB1141DA
:104F400042F21070B1FBF0F0C0B210F00FFF8DF81C
:104F5000060042F21070B4FBF0F100FB1141642036
:104F6000B1FBF0F0C0B210F001FF8DF80700642033
:104F7000B4FBF0F100FB114010F0F8FE8DF80800D2
:104F8000002424E087F8008087F8019000207880D2
:104F9000B649009818F046FF1BE0002073E71FE0B9
:104FA0000AEBC400401C082201A90CF0E7FA60B12A
:104FB0000121002026F08AF80121002001F0C4FA26
:104FC0000121002018F060FB03E0641CE4B25C45A2
:104FD000E6D3002128680EF04FF901201EF0F6FC00
:104FE0009F4890F83D000B2818D00D2816D00F28A8
:104FF00014D098B1052811D00C280FD00E280DD050
:105000000A280BD0092809D0012807D0062805D086
:10501000072803D0032801D0042821D196F82C00BA
:1050200040B1002128680EF027F901201EF0CEFCC7
:10503000002028E70020FDF719FA012809D187F898
:10504000008087F80190002078808849009818F047
:10505000E9FE002128680EF00FF901201EF0B6FCD1
:1050600041E114E100E0D7E07D4890F83D10A0F662
:10507000EE00039002296ED196F82D0040B1002178
:1050800028680EF0F9F801201EF0A0FC0020FAE6D6
:105090000020FDF7EBF9012850D0FDF745FA8246D4
:1050A0009AF800B05FEA0A0053D0012010F08CFC9F
:1050B0000178427841EA02248178C078090441EA03
:1050C000006004436748B4FBF0F0C0B210F04EFE3D
:1050D0008DF804006348B4FBF0F100FB1141624815
:1050E000B1FBF0F0C0B210F041FE8DF805005E4853
:1050F000B4FBF0F100FB114142F21070B1FBF0F093
:10510000C0B210F033FE8DF8060042F21070B4FB0E
:10511000F0F100FB11416420B1FBF0F0C0B210F0DF
:1051200025FE8DF807006420B4FBF0F100FB114070
:1051300010F01CFE8DF80800002424E087F80C8095
:1051400087F80D900120F8810399009818F06AFE05
:105150001BE0002097E61FE00AEBC400401C082279
:1051600001A90CF00BFA60B10121084625F0AEFF51
:105170000121084601F0E8F90121084618F084FAF7
:1051800003E0641CE4B25C45E6D3002128680EF01D
:1051900073F801201EF01AFC314890F83D000B28EE
:1051A00018D00D2816D00F2814D098B1052811D08A
:1051B0000C280FD00E280DD00A280BD0092809D0B2
:1051C000012807D0062805D0072803D0032801D0DE
:1051D000042820D196F82D0040B1002128680EF057
:1051E0004BF801201EF0F2FB00204CE60020FDF7FA
:1051F0003DF9012808D187F80C8087F80D90F881D7
:105200000399009818F00EFE002128680EF034F87B
:1052100001201EF0DBFB66E092F83D000B281AD05F
:105220000D2818D00F2816D0022814D098B10A28BB
:1052300011D009280FD005280DD00C280BD00E282E
:1052400009D0012807D0062805D0072803D0032855
:1052500001D0042847D10BE098960220AC02002030
:105260009A98022000E1F50540420F00A08F02202D
:105270000878012807D103221CA1002017F0B4FFF1
:10528000002018F025FA01201EF0A0FB2BE092F878
:105290003D000B281AD00D2818D00F2816D0022850
:1052A00014D098B1092811D005280FD00C280DD0A2
:1052B0000E280BD0012809D00A2807D0062805D0CF
:1052C000072803D0032801D004280CD1087801282E
:1052D00006D1032206A117F087FF012018F0F8F984
:1052E00001201EF073FB0120CDE5000045353400A0
:1052F000453533002DE9F05F04460D460C2C02D3F2
:105300000020BDE8F09FDFF88C9201274FF00208E3
:10531000A9F6A816022C01D0042C53D1092D4DD288
:10532000DFE805F04C0538384C47473D4200022C79
:1053300025D0012010F048FB28B30178427841EADB
:1053400002228178C078090441EA00600243317882
:10535000592011FB00F04844C0F81A20C17780F8AA
:105360000480022C11D000218B480DF085FF30788D
:1053700000211DF0E1FC317888480F5422E0002024
:1053800010F022FBD8E70020BBE7002184480DF095
:1053900073FFECE7834984480DF06EFF12E081490A
:1053A00082480DF069FF0DE07E4981480DF064FFF1
:1053B00008E07C497F480DF05FFF03E079497E48B3
:1053C0000DF05AFF032C01D0052C27D1012D06D05A
:1053D000022D72D0032D70D0092D1FD187E03078B7
:1053E000592110FB01F048440771DFF8D0B1DFF814
:1053F000D0A14FF00009032C11D010F079FA5845D4
:1054000046D1012009F04CFF19F086F83062594668
:105410006C480DF031FF01200DF058F96DE010F0EF
:1054200067FA58450DD1002009F03AFF19F074F8D9
:10543000F061624964480DF01FFF00200DF046F94D
:105440005BE0F775707D88B186F8179086F8159047
:10545000002009F025FF19F05FF8F0615B495A4818
:105460000DF00AFF00200DF031F946E00021584808
:105470000DF002FF00201DF0D3FC032255A10020F7
:1054800017F0B2FE9AF80100401C8AF8010034E0DF
:105490003776B07D90B186F8189086F81690012086
:1054A00009F0FEFE19F038F83062484945480DF021
:1054B000E3FE01200DF00AF91FE011E0002144484D
:1054C0000DF0DAFE032244A1012017F08DFE012029
:1054D0001DF0A6FC9AF80100401C8AF801000CE0BF
:1054E00010F006FA014630480DF0C6FE05E010F057
:1054F000FFF9014639480DF0BFFE012C0BD1002108
:1055000037480DF0B9FE012D0AD0082D3CD03549A1
:1055100029480DF0B1FE01201EF058FA0120F0E6F6
:1055200010F072F9044634B320786178E27840EAEA
:105530000121A078000440EA02600143284D287947
:10554000C0011AF00DFF2879D4F8161008EBC0102E
:105550001AF006FFA17E04204FF47842FF290CD0F8
:10556000297900EBC1108A210CF012FD00211C48A2
:105570000DF082FECFE70020C3E6297900EBC110D1
:1055800089210CF005FDF1E7164909480DF074FE7C
:10559000C1E7000040A002204C030020BC9602207E
:1055A00038030020AC02002024030020E802002081
:1055B000D4020020FC020020100300206003002021
:1055C0008006002014040020000400207403002042
:1055D0009C0300204536310045363000880300200A
:1055E0000C020020E40100202DE9FC5F8146FCF75D
:1055F000E1FE009099F80840022C02D30020BDE89B
:10560000FC9FDFF858B400260BF2A6779BF83A000F
:10561000DFF84CA4A7F6A81501280AD010F068F905
:105620008046B9F1000F02D02878022873D30020F9
:10563000E5E799F80100DFF82C844FF03A092328B8
:105640006AD0242802D0252853D166E003202919E6
:1056500081F82E00204610F009FB40F0800159200F
:1056600004FB0075697604EB041000EB4411FE485E
:1056700011220144183105F12400FAF771FE0220CD
:1056800005F81E0F40F2452060430AEB400707F281
:105690003F2010F039F9D7F83F022862B7F84302EB
:1056A000A88497F8450285F826007E61BE61012135
:1056B00020461DF041FB204609F0F2FD9BF83D001D
:1056C000082817D004EB440008F8209008EB80016C
:1056D00011224A704C80009818F0A4FB9BF83D0002
:1056E000A0B1052812D00C2810D00E280ED0092801
:1056F0000CD0EBE104EB440008F8209008EB8001AB
:105700004E704C80009818F08DFBE7E70021204692
:1057100025F0DCFCDAE1D4E066E028192C30867054
:1057200005210170C4EBC40000EB4001CF480844E0
:105730001521FAF72EFE592004FB00756E76002124
:10574000204600F019FF04EB041000EB4411C6489A
:1057500011220144183105F12400FAF701FE02205C
:10576000A8779BF83A00012803D10121204622F0B6
:1057700011FEFDF779FA0128BBD10020FDF79AF858
:105780000128B6D19BF83D0002280AD048B109286B
:1057900007D0052805D00C2803D00E2801D00828F2
:1057A0000AD104EB440008F8209008EB80014E7009
:1057B0004C80009818F036FB9BF83D0038B1052866
:1057C00005D00C2803D00E2801D0092891D104EB74
:1057D000440008F8209008EB800120224A704C8099
:1057E000009818F01FFB71E128190546407E00283B
:1057F00090D19C4B04EB440003EB800811220190F4
:1058000088F8012019356E75EE7418F085FE014692
:10581000974800EB8400C16101202870592104FBE6
:10582000017528712046FDF76FFA6876052807D1C3
:10583000904904EBC400084480795A2800D96E7658
:10584000012120461DF078FA40F2452060430AEB22
:10585000400000F23F2010F057F8C4EBC40000EB0A
:105860004001824808441521FAF793FD204609F0CB
:1058700017FD7C48019900F82190A8F802409BF898
:105880003D0038B1052805D00C2803D00E2801D0E2
:1058900009280CD17848005DAA2804D1204625F0BB
:1058A0007DF9022808D00021204625F00FFC414652
:1058B000009818F0B7FA09E10021204625F006FC0F
:1058C00004E16E4880450BD06D48804508D06D4896
:1058D000804505D06C48804502D06C48804501D198
:1058E00000208CE699F80100DFF880B123280BF145
:1058F000150B78D0242802D0252845D14EE0281950
:105900004676204610F0B2F98046592004FB007517
:1059100048F08001697604EB041000EB4411524812
:1059200011220144183105F12400FAF719FD012074
:1059300005F81E0F40F2452060430AEB4000064682
:1059400000F23F200FF0E0FF06F23F2630682862A9
:10595000B088A884B07985F8260000214C480DF065
:105960008BFC99F801104A484FF4784224290CD056
:10597000007908F11F0808F0FF01C0010CF008FBD6
:10598000012120461DF0D8F9A0E0007908F11F0898
:1059900008F0FF01C0010CF0FBFAF1E700212046FE
:1059A00000F0EAFD15213148FAF7F3FC15215846BD
:1059B000FAF7EFFC04EB041000EB44112A485922DB
:1059C000014404FB02700546183124301122FAF715
:1059D000C7FC0120A8773CB110F0C4FA00212D4883
:1059E0000DF04AFC72E006E010F0A0FA00212A480F
:1059F0000DF042FC6AE02819417E69BB4FF00109B5
:105A000080F819902046FDF77FF9592101FB0471B8
:105A10004876012120461DF08FF940F24520604371
:105A20000AEB400000F23F200FF06EFF20001B4FFA
:105A300042F210744CD015215846FAF7AAFC85F8AA
:105A40001690287E48B12E76AE75DAF89E14DAF8F4
:105A5000B60681422DD323E038E06CE09A9802200C
:105A60005FA30220B88F0220A0C502204C8D022027
:105A70009896022026C6022096100020B40400202A
:105A8000C80400202C0500204005002054050020FB
:105A900060030020C4030020B00300207403002032
:105AA0000219914205D8CAF89E04DAF8BA06CAF873
:105AB000A204012009F0F4FB254926480DF0DCFB87
:105AC00001200CF003FE18F027FD2862012096E566
:105AD00015212148FAF75DFC85F81590E87DF0B1B5
